{
  "_format": "hh-sol-artifact-1",
  "contractName": "SusuChain",
  "sourceName": "contracts/SusuChain.sol",
  "abi": [
    {
      "anonymous": false,
      "inputs": [
        {
          "indexed": true,
          "internalType": "uint256",
          "name": "circleId",
          "type": "uint256"
        },
        {
          "indexed": true,
          "internalType": "address",
          "name": "creator",
          "type": "address"
        },
        {
          "indexed": false,
          "internalType": "string",
          "name": "name",
          "type": "string"
        }
      ],
      "name": "CircleCreated",
      "type": "event"
    },
    {
      "anonymous": false,
      "inputs": [
        {
          "indexed": true,
          "internalType": "uint256",
          "name": "circleId",
          "type": "uint256"
        },
        {
          "indexed": true,
          "internalType": "address",
          "name": "contributor",
          "type": "address"
        },
        {
          "indexed": false,
          "internalType": "uint256",
          "name": "amount",
          "type": "uint256"
        },
        {
          "indexed": false,
          "internalType": "uint256",
          "name": "round",
          "type": "uint256"
        }
      ],
      "name": "ContributionMade",
      "type": "event"
    },
    {
      "anonymous": false,
      "inputs": [
        {
          "indexed": true,
          "internalType": "uint256",
          "name": "circleId",
          "type": "uint256"
        },
        {
          "indexed": true,
          "internalType": "address",
          "name": "recipient",
          "type": "address"
        },
        {
          "indexed": false,
          "internalType": "uint256",
          "name": "amount",
          "type": "uint256"
        },
        {
          "indexed": false,
          "internalType": "uint256",
          "name": "round",
          "type": "uint256"
        }
      ],
      "name": "PayoutSent",
      "type": "event"
    },
    {
      "inputs": [],
      "name": "circleCount",
      "outputs": [
        {
          "internalType": "uint256",
          "name": "",
          "type": "uint256"
        }
      ],
      "stateMutability": "view",
      "type": "function"
    },
    {
      "inputs": [
        {
          "internalType": "uint256",
          "name": "",
          "type": "uint256"
        }
      ],
      "name": "circles",
      "outputs": [
        {
          "internalType": "string",
          "name": "name",
          "type": "string"
        },
        {
          "internalType": "uint256",
          "name": "contributionAmount",
          "type": "uint256"
        },
        {
          "internalType": "uint256",
          "name": "cycleDuration",
          "type": "uint256"
        },
        {
          "internalType": "uint256",
          "name": "currentRound",
          "type": "uint256"
        },
        {
          "internalType": "uint256",
          "name": "lastPayout",
          "type": "uint256"
        },
        {
          "internalType": "bool",
          "name": "active",
          "type": "bool"
        }
      ],
      "stateMutability": "view",
      "type": "function"
    },
    {
      "inputs": [
        {
          "internalType": "uint256",
          "name": "circleId",
          "type": "uint256"
        }
      ],
      "name": "contribute",
      "outputs": [],
      "stateMutability": "payable",
      "type": "function"
    },
    {
      "inputs": [
        {
          "internalType": "string",
          "name": "name",
          "type": "string"
        },
        {
          "internalType": "uint256",
          "name": "contributionAmount",
          "type": "uint256"
        },
        {
          "internalType": "uint256",
          "name": "cycleDurationDays",
          "type": "uint256"
        },
        {
          "internalType": "address[]",
          "name": "members",
          "type": "address[]"
        }
      ],
      "name": "createCircle",
      "outputs": [],
      "stateMutability": "nonpayable",
      "type": "function"
    },
    {
      "inputs": [
        {
          "internalType": "uint256",
          "name": "circleId",
          "type": "uint256"
        }
      ],
      "name": "getCircle",
      "outputs": [
        {
          "internalType": "string",
          "name": "name",
          "type": "string"
        },
        {
          "internalType": "uint256",
          "name": "contributionAmount",
          "type": "uint256"
        },
        {
          "internalType": "uint256",
          "name": "cycleDuration",
          "type": "uint256"
        },
        {
          "internalType": "address[]",
          "name": "members",
          "type": "address[]"
        },
        {
          "internalType": "uint256",
          "name": "currentRound",
          "type": "uint256"
        },
        {
          "internalType": "uint256",
          "name": "lastPayout",
          "type": "uint256"
        },
        {
          "internalType": "bool",
          "name": "active",
          "type": "bool"
        }
      ],
      "stateMutability": "view",
      "type": "function"
    },
    {
      "inputs": [
        {
          "internalType": "uint256",
          "name": "circleId",
          "type": "uint256"
        }
      ],
      "name": "getMemberCount",
      "outputs": [
        {
          "internalType": "uint256",
          "name": "",
          "type": "uint256"
        }
      ],
      "stateMutability": "view",
      "type": "function"
    },
    {
      "inputs": [
        {
          "internalType": "uint256",
          "name": "",
          "type": "uint256"
        },
        {
          "internalType": "uint256",
          "name": "",
          "type": "uint256"
        },
        {
          "internalType": "address",
          "name": "",
          "type": "address"
        }
      ],
      "name": "hasPaid",
      "outputs": [
        {
          "internalType": "bool",
          "name": "",
          "type": "bool"
        }
      ],
      "stateMutability": "view",
      "type": "function"
    },
    {
      "inputs": [
        {
          "internalType": "uint256",
          "name": "circleId",
          "type": "uint256"
        },
        {
          "internalType": "address",
          "name": "user",
          "type": "address"
        }
      ],
      "name": "isMember",
      "outputs": [
        {
          "internalType": "bool",
          "name": "",
          "type": "bool"
        }
      ],
      "stateMutability": "view",
      "type": "function"
    },
    {
      "inputs": [
        {
          "internalType": "uint256",
          "name": "",
          "type": "uint256"
        }
      ],
      "name": "roundBalance",
      "outputs": [
        {
          "internalType": "uint256",
          "name": "",
          "type": "uint256"
        }
      ],
      "stateMutability": "view",
      "type": "function"
    }
  ],
  "bytecode": "0x6080604052348015600f57600080fd5b506110978061001f6000396000f3fe6080604052600436106100865760003560e01c80637d9e10f5116100595780637d9e10f51461017f578063bc5e0f301461019f578063c1cbbca7146101d1578063c45d2852146101e6578063cf0b11171461020657600080fd5b80632cd19e621461008b5780632f33afb6146100cb5780635ce9284f1461011c57806364ccecde1461014c575b600080fd5b34801561009757600080fd5b506100b86100a6366004610b1e565b60026020526000908152604090205481565b6040519081526020015b60405180910390f35b3480156100d757600080fd5b5061010c6100e6366004610b53565b600160209081526000938452604080852082529284528284209052825290205460ff1681565b60405190151581526020016100c2565b34801561012857600080fd5b506100b8610137366004610b1e565b60009081526020819052604090206003015490565b34801561015857600080fd5b5061016c610167366004610b1e565b61021c565b6040516100c29796959493929190610bce565b34801561018b57600080fd5b5061010c61019a366004610c5e565b61036d565b3480156101ab57600080fd5b506101bf6101ba366004610b1e565b6103e2565b6040516100c296959493929190610c8a565b6101e46101df366004610b1e565b6104a2565b005b3480156101f257600080fd5b506101e4610201366004610d99565b61078c565b34801561021257600080fd5b506100b860035481565b606060008060606000806000806000808a81526020019081526020016000209050806000018160010154826002015483600301846004015485600501548660060160009054906101000a900460ff1686805461027790610e6e565b80601f01602080910402602001604051908101604052809291908181526020018280546102a390610e6e565b80156102f05780601f106102c5576101008083540402835291602001916102f0565b820191906000526020600020905b8154815290600101906020018083116102d357829003601f168201915b505050505096508380548060200260200160405190810160405280929190818152602001828054801561034c57602002820191906000526020600020905b81546001600160a01b0316815260019091019060200180831161032e575b50505050509350975097509750975097509750975050919395979092949650565b6000828152602081905260408120815b60038201548110156103d557836001600160a01b03168260030182815481106103a8576103a8610ea8565b6000918252602090912001546001600160a01b0316036103cd576001925050506103dc565b60010161037d565b5060009150505b92915050565b6000602081905290815260409020805481906103fd90610e6e565b80601f016020809104026020016040519081016040528092919081815260200182805461042990610e6e565b80156104765780601f1061044b57610100808354040283529160200191610476565b820191906000526020600020905b81548152906001019060200180831161045957829003601f168201915b505050600184015460028501546004860154600587015460069097015495969295919450925060ff1686565b6000818152602081905260409020600681015460ff166105005760405162461bcd60e51b8152602060048201526014602482015273436972636c65206973206e6f742061637469766560601b60448201526064015b60405180910390fd5b806001015434146105535760405162461bcd60e51b815260206004820152601960248201527f57726f6e6720636f6e747269627574696f6e20616d6f756e740000000000000060448201526064016104f7565b6000805b60038301548110156105ad57336001600160a01b031683600301828154811061058257610582610ea8565b6000918252602090912001546001600160a01b0316036105a557600191506105ad565b600101610557565b50806105ea5760405162461bcd60e51b815260206004820152600c60248201526b2737ba10309036b2b6b132b960a11b60448201526064016104f7565b600083815260016020908152604080832060048601548452825280832033845290915290205460ff16156106605760405162461bcd60e51b815260206004820152601760248201527f416c72656164792070616964207468697320726f756e6400000000000000000060448201526064016104f7565b60008381526001602081815260408084206004870154855282528084203385528252808420805460ff191690931790925585835260029052812080543492906106aa908490610ed4565b90915550506004820154604080513481526020810192909252339185917ff9b7589b7a8d939b9da5dae90770378fe5fd7802be5d66432e85bedbdbfbcb7a910160405180910390a3600160005b60038401548110156107765760008581526001602090815260408083206004880154845290915281206003860180549192918490811061073957610739610ea8565b60009182526020808320909101546001600160a01b0316835282019290925260400190205460ff1661076e5760009150610776565b6001016106f7565b5080156107865761078684610927565b50505050565b6002815110156107de5760405162461bcd60e51b815260206004820152601a60248201527f4d696e696d756d2032206d656d6265727320726571756972656400000000000060448201526064016104f7565b6000831161083d5760405162461bcd60e51b815260206004820152602660248201527f436f6e747269627574696f6e206d7573742062652067726561746572207468616044820152656e207a65726f60d01b60648201526084016104f7565b600380546000918261084e83610ee7565b90915550600081815260208190526040902090915061086d8682610f4f565b50600081815260208190526040902060010184905561088f836201518061100e565b600082815260208181526040909120600281019290925583516108b89260030191850190610aa4565b5060008181526020819052604080822060048101929092554260058301556006909101805460ff1916600117905551339082907f6f657d36deb3b1aa2e949c5df40eac9d79359a73c2402cefa7aee870f9ceafc090610918908990611025565b60405180910390a35050505050565b600081815260208190526040812060048101546003820180549293919261094e908461103f565b8154811061095e5761095e610ea8565b60009182526020808320909101548683526002909152604082208054908390556004860180546001600160a01b039093169450909261099c83610ee7565b909155505042600585015560038401546004850154036109c35760068401805460ff191690555b6000826001600160a01b03168260405160006040518083038185875af1925050503d8060008114610a10576040519150601f19603f3d011682016040523d82523d6000602084013e610a15565b606091505b5050905080610a565760405162461bcd60e51b815260206004820152600d60248201526c14185e5bdd5d0819985a5b1959609a1b60448201526064016104f7565b60408051838152602081018690526001600160a01b0385169188917fa66924c8a65f84761475175d1d8db947a42ff99992d9881649ceaec7045fe581910160405180910390a3505050505050565b828054828255906000526020600020908101928215610af9579160200282015b82811115610af957825182546001600160a01b0319166001600160a01b03909116178255602090920191600190910190610ac4565b50610b05929150610b09565b5090565b5b80821115610b055760008155600101610b0a565b600060208284031215610b3057600080fd5b5035919050565b80356001600160a01b0381168114610b4e57600080fd5b919050565b600080600060608486031215610b6857600080fd5b8335925060208401359150610b7f60408501610b37565b90509250925092565b6000815180845260005b81811015610bae57602081850181015186830182015201610b92565b506000602082860101526020601f19601f83011685010191505092915050565b60e081526000610be160e083018a610b88565b886020840152876040840152828103606084015280875180835260208301915060208901925060005b81811015610c315783516001600160a01b0316835260209384019390920191600101610c0a565b505080925050508460808301528360a0830152610c5260c083018415159052565b98975050505050505050565b60008060408385031215610c7157600080fd5b82359150610c8160208401610b37565b90509250929050565b60c081526000610c9d60c0830189610b88565b602083019790975250604081019490945260608401929092526080830152151560a090910152919050565b634e487b7160e01b600052604160045260246000fd5b604051601f8201601f1916810167ffffffffffffffff81118282101715610d0757610d07610cc8565b604052919050565b600082601f830112610d2057600080fd5b813567ffffffffffffffff811115610d3a57610d3a610cc8565b8060051b610d4a60208201610cde565b91825260208185018101929081019086841115610d6657600080fd5b6020860192505b83831015610d8f57610d7e83610b37565b825260209283019290910190610d6d565b9695505050505050565b60008060008060808587031215610daf57600080fd5b843567ffffffffffffffff811115610dc657600080fd5b8501601f81018713610dd757600080fd5b803567ffffffffffffffff811115610df157610df1610cc8565b610e04601f8201601f1916602001610cde565b818152886020838501011115610e1957600080fd5b8160208401602083013760006020928201830152955086013593505060408501359150606085013567ffffffffffffffff811115610e5657600080fd5b610e6287828801610d0f565b91505092959194509250565b600181811c90821680610e8257607f821691505b602082108103610ea257634e487b7160e01b600052602260045260246000fd5b50919050565b634e487b7160e01b600052603260045260246000fd5b634e487b7160e01b600052601160045260246000fd5b808201808211156103dc576103dc610ebe565b600060018201610ef957610ef9610ebe565b5060010190565b601f821115610f4a57806000526020600020601f840160051c81016020851015610f275750805b601f840160051c820191505b81811015610f475760008155600101610f33565b50505b505050565b815167ffffffffffffffff811115610f6957610f69610cc8565b610f7d81610f778454610e6e565b84610f00565b6020601f821160018114610fb15760008315610f995750848201515b600019600385901b1c1916600184901b178455610f47565b600084815260208120601f198516915b82811015610fe15787850151825560209485019460019092019101610fc1565b5084821015610fff5786840151600019600387901b60f8161c191681555b50505050600190811b01905550565b80820281158282048414176103dc576103dc610ebe565b6020815260006110386020830184610b88565b9392505050565b60008261105c57634e487b7160e01b600052601260045260246000fd5b50069056fea264697066735822122085fc015faf93e710b19c708ec8505a717e697a3d02dbdae260bdc314fc47b22364736f6c634300081c0033",
  "linkReferences": {},
  "deployedLinkReferences": {}
}