{
  "_format": "hh-sol-artifact-1",
  "contractName": "SusuChain",
  "sourceName": "contracts/SusuChain.sol",
  "abi": [
    {
      "inputs": [],
      "stateMutability": "nonpayable",
      "type": "constructor"
    },
    {
      "inputs": [],
      "name": "EnforcedPause",
      "type": "error"
    },
    {
      "inputs": [],
      "name": "ExpectedPause",
      "type": "error"
    },
    {
      "anonymous": false,
      "inputs": [
        {
          "indexed": true,
          "internalType": "uint256",
          "name": "circleId",
          "type": "uint256"
        },
        {
          "indexed": true,
          "internalType": "address",
          "name": "creator",
          "type": "address"
        },
        {
          "indexed": false,
          "internalType": "string",
          "name": "name",
          "type": "string"
        }
      ],
      "name": "CircleCreated",
      "type": "event"
    },
    {
      "anonymous": false,
      "inputs": [
        {
          "indexed": false,
          "internalType": "uint256",
          "name": "minAmount",
          "type": "uint256"
        },
        {
          "indexed": false,
          "internalType": "uint256",
          "name": "maxAmount",
          "type": "uint256"
        }
      ],
      "name": "ContributionLimitsUpdated",
      "type": "event"
    },
    {
      "anonymous": false,
      "inputs": [
        {
          "indexed": true,
          "internalType": "uint256",
          "name": "circleId",
          "type": "uint256"
        },
        {
          "indexed": true,
          "internalType": "address",
          "name": "contributor",
          "type": "address"
        },
        {
          "indexed": false,
          "internalType": "uint256",
          "name": "amount",
          "type": "uint256"
        },
        {
          "indexed": false,
          "internalType": "uint256",
          "name": "round",
          "type": "uint256"
        }
      ],
      "name": "ContributionMade",
      "type": "event"
    },
    {
      "anonymous": false,
      "inputs": [
        {
          "indexed": false,
          "internalType": "address",
          "name": "account",
          "type": "address"
        }
      ],
      "name": "Paused",
      "type": "event"
    },
    {
      "anonymous": false,
      "inputs": [
        {
          "indexed": true,
          "internalType": "uint256",
          "name": "circleId",
          "type": "uint256"
        },
        {
          "indexed": true,
          "internalType": "address",
          "name": "recipient",
          "type": "address"
        },
        {
          "indexed": false,
          "internalType": "uint256",
          "name": "amount",
          "type": "uint256"
        },
        {
          "indexed": false,
          "internalType": "uint256",
          "name": "round",
          "type": "uint256"
        }
      ],
      "name": "PayoutFailed",
      "type": "event"
    },
    {
      "anonymous": false,
      "inputs": [
        {
          "indexed": true,
          "internalType": "uint256",
          "name": "circleId",
          "type": "uint256"
        },
        {
          "indexed": true,
          "internalType": "address",
          "name": "recipient",
          "type": "address"
        },
        {
          "indexed": false,
          "internalType": "uint256",
          "name": "amount",
          "type": "uint256"
        },
        {
          "indexed": false,
          "internalType": "uint256",
          "name": "round",
          "type": "uint256"
        }
      ],
      "name": "PayoutSent",
      "type": "event"
    },
    {
      "anonymous": false,
      "inputs": [
        {
          "indexed": false,
          "internalType": "address",
          "name": "account",
          "type": "address"
        }
      ],
      "name": "Unpaused",
      "type": "event"
    },
    {
      "anonymous": false,
      "inputs": [
        {
          "indexed": true,
          "internalType": "address",
          "name": "recipient",
          "type": "address"
        },
        {
          "indexed": false,
          "internalType": "uint256",
          "name": "amount",
          "type": "uint256"
        }
      ],
      "name": "Withdrawal",
      "type": "event"
    },
    {
      "inputs": [],
      "name": "circleCount",
      "outputs": [
        {
          "internalType": "uint256",
          "name": "",
          "type": "uint256"
        }
      ],
      "stateMutability": "view",
      "type": "function"
    },
    {
      "inputs": [
        {
          "internalType": "uint256",
          "name": "",
          "type": "uint256"
        }
      ],
      "name": "circles",
      "outputs": [
        {
          "internalType": "string",
          "name": "name",
          "type": "string"
        },
        {
          "internalType": "uint256",
          "name": "contributionAmount",
          "type": "uint256"
        },
        {
          "internalType": "uint256",
          "name": "cycleDuration",
          "type": "uint256"
        },
        {
          "internalType": "uint256",
          "name": "currentRound",
          "type": "uint256"
        },
        {
          "internalType": "uint256",
          "name": "lastPayout",
          "type": "uint256"
        },
        {
          "internalType": "bool",
          "name": "active",
          "type": "bool"
        },
        {
          "internalType": "uint256",
          "name": "roundDuration",
          "type": "uint256"
        },
        {
          "internalType": "uint256",
          "name": "gracePeriod",
          "type": "uint256"
        },
        {
          "internalType": "uint256",
          "name": "penaltyFee",
          "type": "uint256"
        }
      ],
      "stateMutability": "view",
      "type": "function"
    },
    {
      "inputs": [
        {
          "internalType": "uint256",
          "name": "circleId",
          "type": "uint256"
        }
      ],
      "name": "contribute",
      "outputs": [],
      "stateMutability": "payable",
      "type": "function"
    },
    {
      "inputs": [
        {
          "internalType": "string",
          "name": "name",
          "type": "string"
        },
        {
          "internalType": "uint256",
          "name": "contributionAmount",
          "type": "uint256"
        },
        {
          "internalType": "uint256",
          "name": "roundDurationDays",
          "type": "uint256"
        },
        {
          "internalType": "uint256",
          "name": "gracePeriodDays",
          "type": "uint256"
        },
        {
          "internalType": "uint256",
          "name": "penaltyFee",
          "type": "uint256"
        },
        {
          "internalType": "address[]",
          "name": "members",
          "type": "address[]"
        }
      ],
      "name": "createCircle",
      "outputs": [],
      "stateMutability": "nonpayable",
      "type": "function"
    },
    {
      "inputs": [
        {
          "internalType": "uint256",
          "name": "circleId",
          "type": "uint256"
        }
      ],
      "name": "getCircle",
      "outputs": [
        {
          "internalType": "string",
          "name": "name",
          "type": "string"
        },
        {
          "internalType": "uint256",
          "name": "contributionAmount",
          "type": "uint256"
        },
        {
          "internalType": "uint256",
          "name": "cycleDuration",
          "type": "uint256"
        },
        {
          "internalType": "address[]",
          "name": "members",
          "type": "address[]"
        },
        {
          "internalType": "uint256",
          "name": "currentRound",
          "type": "uint256"
        },
        {
          "internalType": "uint256",
          "name": "lastPayout",
          "type": "uint256"
        },
        {
          "internalType": "bool",
          "name": "active",
          "type": "bool"
        },
        {
          "internalType": "uint256",
          "name": "roundDuration",
          "type": "uint256"
        },
        {
          "internalType": "uint256",
          "name": "gracePeriod",
          "type": "uint256"
        },
        {
          "internalType": "uint256",
          "name": "penaltyFee",
          "type": "uint256"
        }
      ],
      "stateMutability": "view",
      "type": "function"
    },
    {
      "inputs": [
        {
          "internalType": "uint256",
          "name": "circleId",
          "type": "uint256"
        }
      ],
      "name": "getMemberCount",
      "outputs": [
        {
          "internalType": "uint256",
          "name": "",
          "type": "uint256"
        }
      ],
      "stateMutability": "view",
      "type": "function"
    },
    {
      "inputs": [
        {
          "internalType": "uint256",
          "name": "",
          "type": "uint256"
        },
        {
          "internalType": "uint256",
          "name": "",
          "type": "uint256"
        },
        {
          "internalType": "address",
          "name": "",
          "type": "address"
        }
      ],
      "name": "hasPaid",
      "outputs": [
        {
          "internalType": "bool",
          "name": "",
          "type": "bool"
        }
      ],
      "stateMutability": "view",
      "type": "function"
    },
    {
      "inputs": [
        {
          "internalType": "uint256",
          "name": "circleId",
          "type": "uint256"
        },
        {
          "internalType": "address",
          "name": "user",
          "type": "address"
        }
      ],
      "name": "isMember",
      "outputs": [
        {
          "internalType": "bool",
          "name": "",
          "type": "bool"
        }
      ],
      "stateMutability": "view",
      "type": "function"
    },
    {
      "inputs": [],
      "name": "maxContributionAmount",
      "outputs": [
        {
          "internalType": "uint256",
          "name": "",
          "type": "uint256"
        }
      ],
      "stateMutability": "view",
      "type": "function"
    },
    {
      "inputs": [],
      "name": "minContributionAmount",
      "outputs": [
        {
          "internalType": "uint256",
          "name": "",
          "type": "uint256"
        }
      ],
      "stateMutability": "view",
      "type": "function"
    },
    {
      "inputs": [],
      "name": "owner",
      "outputs": [
        {
          "internalType": "address",
          "name": "",
          "type": "address"
        }
      ],
      "stateMutability": "view",
      "type": "function"
    },
    {
      "inputs": [],
      "name": "pause",
      "outputs": [],
      "stateMutability": "nonpayable",
      "type": "function"
    },
    {
      "inputs": [],
      "name": "paused",
      "outputs": [
        {
          "internalType": "bool",
          "name": "",
          "type": "bool"
        }
      ],
      "stateMutability": "view",
      "type": "function"
    },
    {
      "inputs": [
        {
          "internalType": "address",
          "name": "",
          "type": "address"
        }
      ],
      "name": "pendingWithdrawals",
      "outputs": [
        {
          "internalType": "uint256",
          "name": "",
          "type": "uint256"
        }
      ],
      "stateMutability": "view",
      "type": "function"
    },
    {
      "inputs": [
        {
          "internalType": "uint256",
          "name": "",
          "type": "uint256"
        }
      ],
      "name": "roundBalance",
      "outputs": [
        {
          "internalType": "uint256",
          "name": "",
          "type": "uint256"
        }
      ],
      "stateMutability": "view",
      "type": "function"
    },
    {
      "inputs": [
        {
          "internalType": "uint256",
          "name": "_minAmount",
          "type": "uint256"
        },
        {
          "internalType": "uint256",
          "name": "_maxAmount",
          "type": "uint256"
        }
      ],
      "name": "setContributionLimits",
      "outputs": [],
      "stateMutability": "nonpayable",
      "type": "function"
    },
    {
      "inputs": [],
      "name": "unpause",
      "outputs": [],
      "stateMutability": "nonpayable",
      "type": "function"
    },
    {
      "inputs": [],
      "name": "withdraw",
      "outputs": [],
      "stateMutability": "nonpayable",
      "type": "function"
    }
  ],
  "bytecode": "0x6080604052348015600f57600080fd5b50600680546001600160a01b0319163317905566038d7ea4c6800060075569021e19e0c9bab240000060085561185b8061004a6000396000f3fe6080604052600436106101095760003560e01c80637d9e10f511610095578063c1cbbca711610064578063c1cbbca714610317578063c66388221461032a578063c67e04d81461034a578063cf0b11171461036a578063f3f437031461038057600080fd5b80637d9e10f5146102755780638456cb59146102955780638da5cb5b146102aa578063bc5e0f30146102e257600080fd5b80633f4ba83a116100dc5780633f4ba83a146101cc57806345d5149f146101e15780635c975abb146101f75780635ce9284f1461020f57806364ccecde1461023f57600080fd5b806319cc1ec41461010e5780632cd19e62146101375780632f33afb6146101645780633ccfd60b146101b5575b600080fd5b34801561011a57600080fd5b5061012460085481565b6040519081526020015b60405180910390f35b34801561014357600080fd5b5061012461015236600461121f565b60036020526000908152604090205481565b34801561017057600080fd5b506101a561017f366004611254565b600260209081526000938452604080852082529284528284209052825290205460ff1681565b604051901515815260200161012e565b3480156101c157600080fd5b506101ca6103ad565b005b3480156101d857600080fd5b506101ca6104e3565b3480156101ed57600080fd5b5061012460075481565b34801561020357600080fd5b5060005460ff166101a5565b34801561021b57600080fd5b5061012461022a36600461121f565b60009081526001602052604090206003015490565b34801561024b57600080fd5b5061025f61025a36600461121f565b610517565b60405161012e9a999897969594939291906112cf565b34801561028157600080fd5b506101a5610290366004611378565b610685565b3480156102a157600080fd5b506101ca6106fa565b3480156102b657600080fd5b506006546102ca906001600160a01b031681565b6040516001600160a01b03909116815260200161012e565b3480156102ee57600080fd5b506103026102fd36600461121f565b61072c565b60405161012e999897969594939291906113a4565b6101ca61032536600461121f565b610801565b34801561033657600080fd5b506101ca6103453660046114c9565b610b48565b34801561035657600080fd5b506101ca6103653660046115b0565b610e4a565b34801561037657600080fd5b5061012460045481565b34801561038c57600080fd5b5061012461039b3660046115d2565b60056020526000908152604090205481565b6103b5610f0b565b336000908152600560205260409020548061040f5760405162461bcd60e51b8152602060048201526015602482015274139bc81c195b991a5b99c81dda5d1a191c985dd85b605a1b60448201526064015b60405180910390fd5b336000818152600560205260408082208290555190919083908381818185875af1925050503d8060008114610460576040519150601f19603f3d011682016040523d82523d6000602084013e610465565b606091505b50509050806104aa5760405162461bcd60e51b815260206004820152601160248201527015da5d1a191c985dd85b0819985a5b1959607a1b6044820152606401610406565b60405182815233907f7fcf532c15f0a6db0bd6d0e038bea71d30d808c7d98cb3bf7268a95bf5081b659060200160405180910390a25050565b6006546001600160a01b0316331461050d5760405162461bcd60e51b8152600401610406906115f4565b610515610f2f565b565b606060008060606000806000806000806000600160008d81526020019081526020016000209050806000018160010154826002015483600301846004015485600501548660060160009054906101000a900460ff1687600701548860080154896009015489805461058790611639565b80601f01602080910402602001604051908101604052809291908181526020018280546105b390611639565b80156106005780601f106105d557610100808354040283529160200191610600565b820191906000526020600020905b8154815290600101906020018083116105e357829003601f168201915b505050505099508680548060200260200160405190810160405280929190818152602001828054801561065c57602002820191906000526020600020905b81546001600160a01b0316815260019091019060200180831161063e575b505050505096509a509a509a509a509a509a509a509a509a509a50509193959799509193959799565b6000828152600160205260408120815b60038201548110156106ed57836001600160a01b03168260030182815481106106c0576106c0611673565b6000918252602090912001546001600160a01b0316036106e5576001925050506106f4565b600101610695565b5060009150505b92915050565b6006546001600160a01b031633146107245760405162461bcd60e51b8152600401610406906115f4565b610515610f81565b60016020526000908152604090208054819061074790611639565b80601f016020809104026020016040519081016040528092919081815260200182805461077390611639565b80156107c05780601f10610795576101008083540402835291602001916107c0565b820191906000526020600020905b8154815290600101906020018083116107a357829003601f168201915b50505060018401546002850154600486015460058701546006880154600789015460088a01546009909a015498999598949750929550909360ff9091169289565b610809610f0b565b6000818152600160205260409020600681015460ff166108625760405162461bcd60e51b8152602060048201526014602482015273436972636c65206973206e6f742061637469766560601b6044820152606401610406565b3460000361086e575050565b600081600701548260050154610884919061169f565b90506000826008015482610898919061169f565b4211905060008360010154905081156108bd5760098401546108ba908261169f565b90505b80341461090c5760405162461bcd60e51b815260206004820152601960248201527f57726f6e6720636f6e747269627574696f6e20616d6f756e74000000000000006044820152606401610406565b6000805b600386015481101561096657336001600160a01b031686600301828154811061093b5761093b611673565b6000918252602090912001546001600160a01b03160361095e5760019150610966565b600101610910565b50806109a35760405162461bcd60e51b815260206004820152600c60248201526b2737ba10309036b2b6b132b960a11b6044820152606401610406565b600086815260026020908152604080832060048901548452825280832033845290915290205460ff1615610a195760405162461bcd60e51b815260206004820152601760248201527f416c72656164792070616964207468697320726f756e640000000000000000006044820152606401610406565b60008681526002602090815260408083206004890154845282528083203384528252808320805460ff19166001179055888352600390915281208054349290610a6390849061169f565b90915550506004850154604080513481526020810192909252339188917ff9b7589b7a8d939b9da5dae90770378fe5fd7802be5d66432e85bedbdbfbcb7a910160405180910390a3600160005b6003870154811015610b2f57600088815260026020908152604080832060048b01548452909152812060038901805491929184908110610af257610af2611673565b60009182526020808320909101546001600160a01b0316835282019290925260400190205460ff16610b275760009150610b2f565b600101610ab0565b508015610b3f57610b3f87610fbe565b50505050505050565b610b50610f0b565b600281511015610ba25760405162461bcd60e51b815260206004820152601a60248201527f4d696e696d756d2032206d656d626572732072657175697265640000000000006044820152606401610406565b60005b8151811015610c7a576000610bbb82600161169f565b90505b8251811015610c7157828181518110610bd957610bd9611673565b60200260200101516001600160a01b0316838381518110610bfc57610bfc611673565b60200260200101516001600160a01b031603610c695760405162461bcd60e51b815260206004820152602660248201527f4475706c6963617465206d656d62657220616464726573736573206e6f7420616044820152651b1b1bddd95960d21b6064820152608401610406565b600101610bbe565b50600101610ba5565b50600754851015610cc45760405162461bcd60e51b8152602060048201526014602482015273436f6e747269627574696f6e20746f6f206c6f7760601b6044820152606401610406565b600854851115610d0e5760405162461bcd60e51b8152602060048201526015602482015274086dedce8e4d2c4eae8d2dedc40e8dede40d0d2ced605b1b6044820152606401610406565b6004805460009182610d1f836116b2565b909155506000818152600160205260409020909150610d3e888261171a565b50600081815260016020819052604090912001869055610d6185620151806117d9565b600082815260016020908152604090912060028101929092558351610d8c92600301918501906111a5565b506000818152600160208190526040822060048101929092554260058301556006909101805460ff19169091179055610dc885620151806117d9565b600082815260016020526040902060070155610de784620151806117d9565b600082815260016020526040908190206008810192909255600990910184905551339082907f6f657d36deb3b1aa2e949c5df40eac9d79359a73c2402cefa7aee870f9ceafc090610e39908b906117f0565b60405180910390a350505050505050565b6006546001600160a01b03163314610e745760405162461bcd60e51b8152600401610406906115f4565b80821115610ec45760405162461bcd60e51b815260206004820152601e60248201527f4d696e206c696d6974206d757374206265203c3d206d6178206c696d697400006044820152606401610406565b6007829055600881905560408051838152602081018390527f33aa92491b46a02a93d5a2523a688c5bb3f0192474ba74d63d506220094099ff910160405180910390a15050565b60005460ff16156105155760405163d93c066560e01b815260040160405180910390fd5b610f37611182565b6000805460ff191690557f5db9ee0a495bf2e6ff9c91a7834c1ba4fdd244a5e8aa4e537bd38aeae4b073aa335b6040516001600160a01b03909116815260200160405180910390a1565b610f89610f0b565b6000805460ff191660011790557f62e78cea01bee320cd4e420270b5ea74000d11b0c9f74754ebdbfc544b05a258610f643390565b6000818152600160205260408120600481015460038201805492939192610fe59084611803565b81548110610ff557610ff5611673565b60009182526020808320909101548683526003909152604082208054908390556004860180546001600160a01b0390931694509092611033836116b2565b9091555050426005850155600384015460048501540361105a5760068401805460ff191690555b6000826001600160a01b03168261c35090604051600060405180830381858888f193505050503d80600081146110ac576040519150601f19603f3d011682016040523d82523d6000602084013e6110b1565b606091505b5050905080156111065760408051838152602081018690526001600160a01b0385169188917fa66924c8a65f84761475175d1d8db947a42ff99992d9881649ceaec7045fe581910160405180910390a361117a565b6001600160a01b0383166000908152600560205260408120805484929061112e90849061169f565b909155505060408051838152602081018690526001600160a01b0385169188917f101f1a97913c28a4330dc8ff2f1f5251f4ef7008012d8f60bad8056958bf908b910160405180910390a35b505050505050565b60005460ff1661051557604051638dfc202b60e01b815260040160405180910390fd5b8280548282559060005260206000209081019282156111fa579160200282015b828111156111fa57825182546001600160a01b0319166001600160a01b039091161782556020909201916001909101906111c5565b5061120692915061120a565b5090565b5b80821115611206576000815560010161120b565b60006020828403121561123157600080fd5b5035919050565b80356001600160a01b038116811461124f57600080fd5b919050565b60008060006060848603121561126957600080fd5b833592506020840135915061128060408501611238565b90509250925092565b6000815180845260005b818110156112af57602081850181015186830182015201611293565b506000602082860101526020601f19601f83011685010191505092915050565b610140815260006112e461014083018d611289565b8b60208401528a60408401528281036060840152808a5180835260208301915060208c01925060005b818110156113345783516001600160a01b031683526020938401939092019160010161130d565b505080925050508760808301528660a083015261135560c083018715159052565b8460e083015283610100830152826101208301529b9a5050505050505050505050565b6000806040838503121561138b57600080fd5b8235915061139b60208401611238565b90509250929050565b610120815260006113b961012083018c611289565b602083019a909a525060408101979097526060870195909552608086019390935290151560a085015260c084015260e083015261010090910152919050565b634e487b7160e01b600052604160045260246000fd5b604051601f8201601f1916810167ffffffffffffffff81118282101715611437576114376113f8565b604052919050565b600082601f83011261145057600080fd5b813567ffffffffffffffff81111561146a5761146a6113f8565b8060051b61147a6020820161140e565b9182526020818501810192908101908684111561149657600080fd5b6020860192505b838310156114bf576114ae83611238565b82526020928301929091019061149d565b9695505050505050565b60008060008060008060c087890312156114e257600080fd5b863567ffffffffffffffff8111156114f957600080fd5b8701601f8101891361150a57600080fd5b803567ffffffffffffffff811115611524576115246113f8565b611537601f8201601f191660200161140e565b8181528a602083850101111561154c57600080fd5b8160208401602083013760006020928201830152975088013595505060408701359350606087013592506080870135915060a087013567ffffffffffffffff81111561159757600080fd5b6115a389828a0161143f565b9150509295509295509295565b600080604083850312156115c357600080fd5b50508035926020909101359150565b6000602082840312156115e457600080fd5b6115ed82611238565b9392505050565b60208082526025908201527f4f6e6c7920746865206f776e65722063616e2063616c6c20746869732066756e60408201526431ba34b7b760d91b606082015260800190565b600181811c9082168061164d57607f821691505b60208210810361166d57634e487b7160e01b600052602260045260246000fd5b50919050565b634e487b7160e01b600052603260045260246000fd5b634e487b7160e01b600052601160045260246000fd5b808201808211156106f4576106f4611689565b6000600182016116c4576116c4611689565b5060010190565b601f82111561171557806000526020600020601f840160051c810160208510156116f25750805b601f840160051c820191505b8181101561171257600081556001016116fe565b50505b505050565b815167ffffffffffffffff811115611734576117346113f8565b611748816117428454611639565b846116cb565b6020601f82116001811461177c57600083156117645750848201515b600019600385901b1c1916600184901b178455611712565b600084815260208120601f198516915b828110156117ac578785015182556020948501946001909201910161178c565b50848210156117ca5786840151600019600387901b60f8161c191681555b50505050600190811b01905550565b80820281158282048414176106f4576106f4611689565b6020815260006115ed6020830184611289565b60008261182057634e487b7160e01b600052601260045260246000fd5b50069056fea26469706673582212203694871b9ba7b69c480be81f93e437b95de98dc4c9b459f9bcfd28034ee8b9a864736f6c634300081c0033",
  "linkReferences": {},
  "deployedLinkReferences": {}
}